:10000000AEEF08F00000000000EF00F0000000007C
:0A0010000000000000000000F3D71C
:10001C000F0E0C6E470E0D6E0D2EFED70C2EFCD750
:06002C00000000001200BC
:06003200000000001200B6
:0A003800210E0D6E0D2EFED71200F2
:100042000B840BAE2CEF00F0010E036E026A016A04
:0A005200006A0A360232FF0E1200A7
:08005C000AAE029E000E120024
:0E006400026A016A006A086A036A000E12004E
:10007200086A096A100E0C6E0134083609360450FB
:10008200085E0550D8A0053C095ED8B007D00450E0
:1000920008260550D8B0053C0926D890003601360E
:0600A2000C2EEAD712004B
:1000A8000001E1BF02D08B9601D08B86E1BD02D062
:1000B8008B9401D08B84E1BB02D08B9201D08B82D0
:1000C800E1B902D08B9001D08B80B7B102D08B8878
:1000D80001D08B988B8AA9DF8B9AE1B702D08B96D7
:1000E80001D08B86E1B502D08B9401D08B84E1B32B
:1000F80002D08B9201D08B82E1B102D08B9001D0DB
:100108008B80B7B102D08B8801D08B988B8A8DDF1A
:0E0118008B9AB7A102D07EDF01D08ADF1200E1
:100126000B820BAE9DEF00F0036802680168006861
:080136000A360232FF0E12002E
:0E013E000001B791DAC0E1F0B0DFB781120026
:10014C00086A096A000E076203642BEF01F0025083
:10015C0006180A6E075003267E0ED8A0BCEF00F0DE
:10016C00035ED8B02FEF01F0C0EF00F0035ED8A013
:10017C0033EF01F0028E068E02C00EF001C00BF0C0
:10018C0000C00DF000500402F4CF0CF00150050239
:10019C00F4CF00F0F3CF08F00402F3500C26F45027
:1001AC000822000E00220D500502F3500C26F450CC
:1001BC000822000E002202500402F3500826F450CC
:1001CC00002202500502016A000E0122F3500026A3
:1001DC00F45001220D500602F3500826F450002270
:1001EC00026A000E012202220B500602F350002676
:1001FC00F4500122000E02220E500602F35001268A
:10020C00F450022202BE13EF01F00836003601361C
:10021C0002360306D8B433EF01F026EF01F0D88094
:10022C00800E08640030000E002201220222D8A0A9
:10023C0026EF01F0023201320032034A2FEF01F0B7
:10024C000AAE029E000E35EF01F0010E05DF35EF10
:10025C0001F0020E62DF35EF01F0040EECDE12004D
:0C026C00060E0D6E0D2EFED700001200D5
:0C0278000E0E0D6E0D2EFED700001200C1
:100284000C6A0E6A0250D8A45BEF01F001C002F0C0
:1002940000C001F0006A0E860250D8A45BEF01F0A2
:1002A40001C002F0016A0E960E880250D8B46DEFB8
:1002B40001F00E50035ED8A4D8A072EF01F0D890DC
:1002C40002BE77EF01F0003601360236032E62EFEC
:1002D40001F072EF01F0010E0C6EC2DE7AEF01F054
:1002E400020E0C6EACDE7AEF01F0040E0C6EB4DE7E
:0202F4001200F6
:1002F6000001DA6BDC6BDD6B100EDE6F040EDD5D6C
:1003060029E2F00E816E120E006E000E016E810E55
:100316000024E16E0F0E0120E26EDE1D006E00C0AD
:10032600E6FF84DE83DE0F0E8114006E00C0DBF074
:1003360000520AE0DCC0DAF0DB5304E0DB33DB9F7B
:10034600DA2BFAD7040EDD6FDE37DE91040EDC27DA
:0A035600DD2BD4D7DAC000F012004E
:080360000B6A0B86FF0E120070
:100368000A6A0350D8A40A800750D8A40A820A50FF
:10037800D8B417EF02F0030AD8B4D0EF01F00AB0EE
:10038800CBEF01F006AE15EF02F013EF02F002AE6C
:1003980013EF02F015EF02F00250800B0A6E029E76
:1003A8000650800B069E0A18D8B4E1EF01F00A50F7
:1003B800D8B413EF02F015EF02F00750035CD8B47D
:1003C800EBEF01F0D8A007EF02F00DEF02F00650B6
:1003D800025CD8B4F5EF01F0D8A007EF02F00DEFFA
:1003E80002F00550015CD8B4FFEF01F0D8A007EF88
:1003F80002F00DEF02F00450005CD8B417EF02F0E1
:10040800D8B00DEF02F00A52D8B415EF02F013EF8E
:1004180002F00A52D8B413EF02F015EF02F0D880B8
:0E0428001200D8901200D880D8841200120062
:10043600DAC004F0DBC005F004C002F005C003F02A
:10044600044A052ADCC000F0DDC001F00001DC4BE7
:10045600DD2B00C0E9FF01C0EAFF02C0E1FF03C0D7
:10046600E2FFEECFE6FF02C0E9FF03C0EAFFEE526D
:0E04760001E0E2D7DAC000F0DBC001F01200B6
:100484000D6A086A0050D8B4000C04180A6E0ABE3B
:100494000D1E0B6A04AE02D0041E042A00AE02D064
:1004A400001E002A005004100A6E0ABE1FD0045019
:1004B400085E003600340836045008260036060E5E
:1004C4000C6E00340836045000B0085E00A0082604
:1004D40000360C2EF6D700A008260BB015D00DAEB2
:1004E400000C001E002A081E082A000C04AE09D0C5
:1004F40000BE04D00050086E006AF1D7006A002ADA
:10050400000C001E0B2AD3D7082A0450085CD8A478
:0E051400E6D7086A002A00AEE2D7FF0C1200FC
:100522000001DE6B050EDE5D0AE2DE51DC25E16EC6
:10053200000EDD21E26E200EE66EDE2BF3D7DE51D9
:10054200DC25E16E000EDD21E26EE66ADE07DE5199
:10055200DC25DF6F000EDD21E06F0A0E046E000E57
:10056200056EDAC000F0DBC001F082DD08C000F0E9
:1005720009C001F0300E0026DFC0E1FFE0C0E2FF5B
:1005820000C0E6FF0A0E046E000E056EDAC000F02F
:10059200DBC001F06DDD00C0DAF001C0DBF0000E5F
:1005A200011802E1000E001801E102D0DE07CFD7E8
:0205B200120035
:1005B4000CB01CEF03F00CA2C2EF03F00E6A000EA5
:1005C400026433EF03F0F00E0214D8A4FEEF02F03D
:1005D400023A01380F0B02260138F00B016E003885
:1005E4000F0B01260038F00B006E08380F0B0026A5
:1005F4000838F00B086E0E84D89002BE17EF03F093
:1006040008360036013602360E2A02BE17EF03F012
:1006140008360036013602360E2A02BE17EF03F002
:1006240008360036013602360E2A0E500364B8EF3F
:1006340003F0035E0BBC08AEBDEF03F0D880800E60
:1006440008640030000E002201220222D8A0BDEF6F
:1006540003F0023201320032034AC2EF03F0BDEF6D
:1006640003F001C002F000C001F008C000F0086A05
:10067400000E0E8602646AEF03F0F00E0214D8A492
:1006840052EF03F0023A01380F0B02260138F00B47
:10069400016E00380F0B01260038F00B006E0E843B
:1006A400D89002BE17EF03F00036013602360E2A48
:1006B40002BE17EF03F00036013602360E2A02BEE0
:1006C40017EF03F00036013602360E2A17EF03F057
:1006D40001C002F000C001F0006A000E0E960E8800
:1006E400026497EF03F0F00E0214D8A482EF03F033
:1006F400023A01380F0B02260138F00B016E0E840A
:10070400D89002BE17EF03F0013602360E2A02BE5D
:1007140017EF03F0013602360E2A02BE17EF03F07C
:10072400013602360E2A17EF03F001C002F0016A07
:10073400000E0E860264C7EF03F0F00E0214D8A474
:10074400A6EF03F0023A0E84D89002BE17EF03F02E
:1007540002360E2A02BE17EF03F002360E2A02BE3C
:1007640017EF03F002360E2A17EF03F0010E0C6E9A
:1007740066DCCAEF03F0020E0C6E6EDCCAEF03F007
:10078400040E0C6ECEDCCAEF03F0080E0C6E68DCAF
:02079400120051
:10079600AFDD00C0CCF00F0E8114006E02E063DD09
:0807A600FAD7CCC000F01200EC
:1007AE00949A949894909492949494968B9A8B98FD
:1007BE008B968B948B928B902ADC29DC28DC8B8297
:1007CE008B808B8A2FDC8B9A22DC8B8A2BDC8B9A8C
:1007DE001EDC8B8A27DC8B9A1ADC8B908B8A22DCB0
:1007EE008B9A15DC8B8A1EDC8B9A8B928B868B8A6E
:1007FE0019DC8B9A0CDC8B968B808B8A13DC8B9A94
:10080E008B908B8A0FDC8B9A02DC8B8A0BDC8B9A9B
:10081E008B808B8A07DC8B9A0EEC00F08B908B8A88
:10082E0001DC8B9A8B868B848B828B808B8A19EC66
:0E083E0000F08B9A0EEC00F00001B781120062
:10084C0010D0800E0001CC6F1AD0C00ECC6F17D018
:10085C00940ECC6F14D0D40ECC6F11D0800ECC6F04
:10086C000ED00001CC51010AECE0CC51020AEDE0B3
:10087C00CC51030AEDE0CC51040AEDE0EFD7CD05E5
:10088C00006ECC51002600C0CCF000C0E1F006DCBC
:10089C00B791D06BD051CE25E96E000ECF21EA6E08
:1008AC00EE520BE0D051CE25E96E000ECF21EA6E50
:0E08BC00EECFDAF03EDCD02BEDD7B781120084
:1008CA000900F5CFE6FF0006FBE10106F9E1120097
:1008DA00120E006E000E016E810E0024E16E0F0EE4
:0A08EA000120E26EFF0EE66E120020
:1008F4000450000A12E10550000A0FE10650000AF4
:100904000CE10750000A09E1FF0E006EFF0E016EB4
:100914007F0E026EFF0E036EA7D0086A096A0750A5
:10092400D8B425EF05F00350D8B429EF05F00250F0
:1009340006180A6E028E068E0E6A02C008F001C006
:100944000CF000C00DF004500D5E0550D8A0053C1D
:100954000C5E0650D8A0063C085E086A0C6A0D6A54
:10096400D8A0BCEF04F0D890023201320032083231
:10097400010E0E6E0750035ED8A0C9EF04F07E0E80
:100984000E240326D8B02EEF05F0CFEF04F07E0E30
:100994000E240326D8A033EF05F0180E0B6E0D3687
:1009A4000C3608360036013602360E360450005E28
:1009B4000550D8A0053C015E0650D8A0063C025E56
:1009C40006340E120EA0EAEF04F00D80F5EF04F0E9
:1009D400045000260550D8B0053C01260650D8B076
:1009E400062802260D900B2ED1EF04F01BEF05F024
:1009F400D8900036013602360E360450005E05509B
:100A0400D8A0053C015E0650D8A0063C025E063420
:100A14000E10010B0D26D8B00C2AD8B4082AD8A47D
:100A24001BEF05F008320C320D32032AD8B42EEF36
:100A340005F00AAE089E0850026E0C50016E0D506F
:100A4400006E36EF05F0010E89DC36EF05F0020E7C
:100A540032EC00F036EF05F0040E93EC00F036EFC4
:0A0A640005F0080E21EC00F012006E
:100A6E000050086E0150006E016A026A036A0B6A3A
:100A7E000C6A960E036E0A6A00C001F008C000F000
:0A0A8E00086A026A42EC01F012004F
:100A98000001D86BD96BCCC0D4F0CDC0D5F0CEC096
:100AA800D6F0CFC0D7F0D751FF0A08E1D651FF0AD8
:100AB80005E1D551FF0A02E1D451FF0A0CE1D0C08B
:100AC800DAF0D1C0DBF0B30EDC6F000EDD6FAFDC07
:100AD800030E006EEFD1010ED26FD6AF0ED0800E8E
:100AE800D619006E00C0D6F0D22BD0C0E1FFD1C01D
:100AF800E2FF2D0EE66ED04BD12B000E006ED719FB
:100B080008E10050D61905E10050D51902E1D45189
:100B1800000A0BE1D0C0DAF0D1C0DBF0B00EDC6F18
:100B2800000EDD6F84DC006AC5D1D751FF0A08E1E9
:100B3800D651000A05E1D551000A02E1D451000A54
:100B48000CE1D0C0DAF0D1C0DBF0AC0EDC6F000EE7
:100B5800DD6F6DDCD2C000F0ADD1000E046E000E6A
:100B6800056E000E066E7F0E076ED4C000F0D5C06D
:100B780001F0D6C002F0D7C003F0B4EC01F0010ECA
:100B8800D8B0000E006E00521CE0D4C000F0D5C0F2
:100B980001F0D6C002F0D7C003F0000E046E000EBC
:100BA800056E200E066E820E076EA6EC00F000C0E1
:100BB800D4F001C0D5F002C0D6F003C0D7F0D907F1
:100BC800CCD7000E046E000E056E200E066E820E47
:100BD800076ED4C000F0D5C001F0D6C002F0D7C06F
:100BE80003F0B4EC01F0000ED8B0010E006E005214
:100BF8001CE0D4C000F0D5C001F0D6C002F0D7C0C8
:100C080003F0CD0E046ECC0E056E4C0E066E7B0EF8
:100C1800076EA6EC00F000C0D4F001C0D5F002C009
:100C2800D6F003C0D7F0D92BCCD7FF0ED415086E59
:100C3800FF0ED515096E7F0ED6150A6E000ED71554
:100C48000B6E08C004F009C005F00AC006F00BC01E
:100C580007F004360490053606360736000ED4151C
:100C6800006E000ED515016E000ED615026EFF0E31
:100C7800D715036E00C0D4F001C0D5F002C0D6F07D
:100C880003C0D7F00450D411006E0550D511016E81
:100C98000650D611026E0750D711036E00C0D4F06B
:100CA80001C0D5F002C0D6F003C0D7F07F0ED75DE3
:100CB800006E00C0D3F0010ED76F00C004F0D4C09E
:100CC80000F0D5C001F0D6C002F0D7C003F0045040
:100CD80007E000360090013602360336FF0FF8D7DA
:100CE80000C0D4F001C0D5F002C0D6F003C0D7F0E0
:100CF800D0C0E1FFD1C0E2FFD751300FE66ED04B34
:100D0800D12B800ED919006E800E010A005C08E311
:100D1800800E060A006E800ED919005C01E30AD025
:100D2800D0C0E1FFD1C0E2FF2E0EE66ED04BD12B32
:100D3800010ED86F060ED36FD351000A54E0D76B5B
:100D4800D4C000F0D5C001F0D6C002F0D7C003F07F
:100D58000036009001360236033600360090013620
:100D680002360336D4510026D5510122D65102222B
:100D7800D751032200C0D4F001C0D5F002C0D6F08C
:100D880003C0D7F0D4C000F0D5C001F0D6C002F03F
:100D9800D7C003F00036009001360236033600C093
:100DA800D4F001C0D5F002C0D6F003C0D7F0D0C04F
:100DB800E1FFD1C0E2FFD751300FE66ED04BD12B07
:100DC800D851000A0EE1D907D951000A0AE1D0C06A
:100DD800E1FFD1C0E2FF2E0EE66ED04BD12B010E03
:100DE800D86FD307A9D7FF0ED025E96EFF0ED12102
:100DF800EA6EEE50300A05E1010ED05F000ED15BBD
:100E0800F2D7FF0ED025E96EFF0ED121EA6EEE5023
:100E18002E0A04E1010ED05F000ED15BD951000A01
:100E280043E0D0C0E1FFD1C0E2FF650EE66ED04BD3
:100E3800D12B800ED919006E800E000A005C0BE2DF
:100E4800D0C0E1FFD1C0E2FF2D0EE66ED04BD12B12
:100E5800D9510008D96FD9C0D3F0800E090A006EA5
:100E6800800ED919005C0FE20A0E046ED3C000F0A0
:100E780042EC02F0D0C0E1FFD1C0E2FF0050300FD9
:100E8800E66ED04BD12B0A0E046ED3C000F042ECB4
:100E980002F008C000F0D0C0E1FFD1C0E2FF00506E
:100EA800300FE66ED04BD12BD0C0E1FFD1C0E2FFAE
:060EB800E66A006A120068
:100EBE0003500718D8A473EF07F002500618D8A4F1
:100ECE0073EF07F001500518D8A473EF07F0005028
:0E0EDE000418D8B4D8841200D8941200120060
:100EEC0000C008F00B6A0C6A9E0E036E0A6A026A56
:0E0EFC00016A006A020E0C6EDAEC02F01200BF
:100F0A000001CE6BCF6BCCC003F0CDC004F0CCC0D7
:100F1A0005F0CDC006F003C0E9FF04C0EAFFEE50B9
:100F2A00200A04E1CE51CF1101E110D0010ECE6F9B
:100F3A00000ECF6F03C0E9FF04C0EAFF05C0E1FF5E
:100F4A0006C0E2FFEECFE6FF054A062A03C001F01B
:100F5A0004C002F0034A042A01C0E9FF02C0EAFF02
:100F6A00EE50000AD8E1CCC000F0CDC001F012006A
:100F7A000001D26BD36BCCC0D4F0CDC0D5F0800EBB
:100F8A00CD19006E800E005C02E1000ECC5D0BE212
:100F9A00010ED26F000ED36FCC510008D46FCDC0B2
:100FAA00D5F0000ED557D4C0DAF0D5C0DBF0CEC0EC
:100FBA00DCF0CFC0DDF091EC02F0060ED06F000E2F
:100FCA00D16F000E006ED151005C02E1D0510008D1
:100FDA0019E2D051CE25E16ED151CF21E26E010E38
:100FEA00D05D006E000ED159016E0050CE25E96E1B
:100FFA000150CF21EA6EEECFE6FF010ED05F000E60
:10100A00D15BDFD7CEC0E1FFCFC0E2FF200EE66E94
:10101A00D251D3111AE0D06BD16BD051CE25E96EE3
:10102A00D151CF21EA6EEE50200A03E1D04BD12BE9
:10103A00F4D7010ED05F000ED15BD051CE25E16E00
:0C104A00D151CF21E26E2D0EE66E120097
:101056000001CE6BCE51CC25E96E000ECD21EA6E95
:10106600EE520CE0CE51CC25E96E000ECD21EA6E93
:0E107600EECFDAF09FEC00F0CE2BECD712009C
:10108400C26A0001B21D006E0050C1160F0EC012DC
:10109400C08ECCC000F000360090003600900050A6
:1010A400C212C2803CEC01F0C282C2A201D0FDD7C0
:1010B400C4CF01F0006A00C0CDF001C0CEF0C3502F
:1010C4000012000E011200C0CDF001C0CEF0C2909B
:1010D400000E0014026E0150800B036E000E031804
:1010E40002E1000E021802E0CD6BCE6BCDC000F021
:0610F400CEC001F0120065
:1010FA0010D0800E0001CC6F1AD0C00ECC6F17D062
:10110A00940ECC6F14D0D40ECC6F11D0800ECC6F4D
:10111A000ED00001CC51010AECE0CC51020AEDE0FC
:10112A00CC51030AEDE0CC51040AEDE0EFD7CD052E
:10113A00006ECC51002600C0CCF0B78100C0E1F0AF
:10114A0054EC00F0B791CEC0E1F054EC00F0B78156
:02115A00120081
:10115C0000EC0BF06DEC04F00F013A6B396B3B6B50
:10116C009280946A95909592D7EC03F0010EE16F02
:10117C0054EC00F00C0EE16F54EC00F0010ECC6F4F
:10118C00010ECD6F6F0ECE6F000ECF6F26EC04F0FC
:10119C00020ECC6F010ECD6F5D0ECE6F000ECF6FB9
:1011AC0026EC04F0150E0B6E4B0E0C6EBE0E0D6E77
:1011BC000D2EFED70C2EFCD70B2EFAD700008390E9
:1011CC008392010EE16F54EC00F0010ECC6F010E16
:1011DC00CD6F500ECE6F000ECF6F26EC04F0C76BA8
:1011EC00020ECC6F010ECD6F960ECE6F000ECF6F30
:1011FC0026EC04F0CBEC03F000C0B8F00052FAE09F
:10120C00B8510F0A01E123D0B851030804E2080ECB
:10121C00B85DD8A0B807B851080805E20C0EB85D47
:10122C0002E2020EB85FB8510E0AD8B4B86BB851CE
:10123C000D0A01E1C6D7300EB825DA6F9FEC00F02D
:10124C000A0EC703F3CFC7F0B851C727D3D7010E87
:10125C00E16F54EC00F0010ECC6F010ECD6F8B0ED4
:10126C00CE6F000ECF6F26EC04F0C7C0CCF0000E92
:10127C00CD6FB90ECE6F000ECF6F79DEB90ECC6F7D
:10128C00000ECD6F3CDE00C0CCF0000ECD6FDDDE6D
:10129C00020ECC6F010ECD6F7A0ECE6F000ECF6F9B
:1012AC0026EC04F0B86BB8510F0A07E0CBEC03F056
:1012BC0000C0B8F00052FAE0F6D7010EE16F54EC22
:1012CC0000F0010ECC6F010ECD6F450ECE6F000EEF
:1012DC00CF6F26EC04F0010ECC6F0F0ECD6FDF0E2E
:1012EC00CE6F05DF010ECC6F100ECD6F430ECE6F9F
:1012FC00FEDECC6BC1DE37EC05F0000E046E400E4A
:10130C00056E1C0E066E8B0E076EA6EC00F0000E22
:10131C00046E000E056E000E066E890E076E7AECDA
:10132C0004F0000E046E000E056E200E066E820E8A
:10133C00076E7AEC04F000C0C8F001C0C9F002C01E
:10134C00CAF003C0CBF0C7C0CCF0000E0001CD6FCB
:10135C00B90ECE6F000ECF6F0ADEB90ECC6F000E39
:10136C00CD6FCDDD010ECC6F0B0ECD6F00C0CEF06E
:10137C00000ECF6F26EC04F0020ECC6F010ECD6F79
:10138C00220ECE6F000ECF6F26EC04F0C8C0CCF04E
:10139C00C9C0CDF0CAC0CEF0CBC0CFF0B90ED06F63
:1013AC00000ED16F4CEC05F0BD6B020ECC6F070E2E
:1013BC00CD6FB90ECE6F000ECF6F26EC04F0020E7F
:1013CC00CC6F0C0ECD6F1F0ECE6F000ECF6F26ECB8
:1013DC0004F0C7C000F084DD00C004F001C005F0CB
:1013EC0002C006F003C007F0C8C000F0C9C001F08D
:1013FC00CAC002F0CBC003F0B4EC01F0010ED8B0BF
:10140C00000E006E00520CE083808392010ECC6FB4
:10141C00010ECD6F150ECE6F000ECF6F26EC04F0C3
:10142C00C7C000F05DDDC8C004F0C9C005F0CAC07B
:10143C0006F0CBC007F0B4EC01F0010ED8B0000EF2
:10144C00006E00520CE083908382010ECC6F010E73
:10145C00CD6F3B0ECE6F000ECF6F26EC04F0C7C0E5
:10146C0000F03EDDC8C004F0C9C005F0CAC006F0EB
:10147C00CBC007F01EDD010ED8A4000E006E00528A
:10148C000CE083908392010ECC6F010ECD6F340E65
:10149C00CE6F000ECF6F26EC04F00B0E0B6E260EEB
:1014AC000C6E5D0E0D6E0D2EFED70C2EFCD70B2E7A
:1014BC00FAD700000000C8C004F0C9C005F0CAC0CB
:1014CC0006F0CBC007F0000E006E000E016E480E49
:1014DC00026E830E036EB4EC01F0010ED8B0000E58
:1014EC00006E00520EE0010EE16F54EC00F0010EA4
:1014FC00CC6F010ECD6F290ECE6F000ECF6F26EC88
:10150C0004F0000E046E000E056E200E066E820EA8
:10151C00076EC8C000F0C9C001F0CAC002F0CBC051
:10152C0003F0B4EC01F0010ED8B0000E006E0052C6
:10153C000EE0010EE16F54EC00F0010ECC6F010EC9
:10154C00CD6FA10ECE6F000ECF6F26EC04F0D1D66E
:02155C00FFD7B7
:1016000010EE15F0A20E006E010E016E5E0EF66E6B
:0E161000150EF76E000EF86E65EC04F0120079
:0A155E0048656174696E672E2E0067
:0315680020200040
:07156B0054656D703D200086
:0B15720020536F20486F742E2E2000C5
:07157D0049646C652E2E008D
:0A158400436F6F6C696E672E2E0036
:0B158E0054656D70205265663A200025
:0D15990054656D7020526566204749520070
:1015A60054656D70726174757265205379737465D4
:0215B6006D00C6
:0B15B80057656C636F6D6520746F0059
:1015C3005072657373202320746F20436F6E742EE3
:0115D3000017
:0B15D40054656D70205265663A2000DF
:0B15DF0054656D70205265663A2000D4
:0B15EA00536F20436F6C642E2E200016
:0415F500494E460015
:0215F9003000C0
:0115FB000FE0
:0415FC004E614E00EE
:020000040030CA
:0D000100231F3CFFBF81FF0FC00FE00F4029
:00000001FF
